:100000000C942A000C9434000C9434000C943400AA
:100010000C9434000C9434000C9434000C94340090
:100020000C9434000C9434000C9434000C94340080
:100030000C9434000C9434000C9434000C94340070
:100040000C9434000C9434000C9434000C94340060
:100050000C94340011241FBECFE5D8E0DEBFCDBF25
:100060000E947C020C94DE020C94000087B1806434
:1000700087B987B18F7787B987B18F7D87B987B106
:10008000816087B986B1806286B986B1816086B9A0
:1000900086B1826086B986B1846086B986B1877F71
:1000A00086B986B1806886B90895FC0196B19064DE
:1000B00096B9349BFECF84B195B191838083089526
:1000C0004130B9F58431A1F018F48A3031F0089547
:1000D0008E31C9F0883211F108952AB381E090E0A1
:1000E00002C0880F991F6A95E2F7822B8ABB089598
:1000F00027B381E090E002C0880F991F6A95E2F76C
:10010000822B87BB089524B381E090E002C0880F62
:10011000991F6A95E2F7822B84BB089521B381E091
:1001200090E002C0880F991F6A95E2F7822B81BB8D
:10013000089541113AC08431A9F018F48A3031F0A1
:1001400008958E31D9F0883229F108952AB381E0DB
:1001500090E002C0880F991F6A95E2F7809582238C
:100160008ABB089527B381E090E002C0880F991FF1
:100170006A95E2F78095822387BB089524B381E0D6
:1001800090E002C0880F991F6A95E2F7809582235C
:1001900084BB089521B381E090E002C0880F991FCD
:1001A0006A95E2F78095822381BB08954130B9F5C5
:1001B0008431A1F018F48A3031F008958E31C9F0FD
:1001C000883211F108952BB381E090E002C0880FCE
:1001D000991F6A95E2F7822B8BBB089528B381E0C3
:1001E00090E002C0880F991F6A95E2F7822B88BBC6
:1001F000089525B381E090E002C0880F991F6A95A9
:10020000E2F7822B85BB089522B381E090E002C023
:10021000880F991F6A95E2F7822B82BB08954111DE
:100220003AC08431A9F018F48A3031F008958E3143
:10023000D9F0883229F108952BB381E090E002C013
:10024000880F991F6A95E2F7809582238BBB0895EA
:1002500028B381E090E002C0880F991F6A95E2F709
:100260008095822388BB089525B381E090E002C089
:10027000880F991F6A95E2F78095822385BB0895C0
:1002800022B381E090E002C0880F991F6A95E2F7DF
:100290008095822382BB0895CF93C82F40E061E010
:1002A00084E10E94D60040E062E084E10E94D60032
:1002B00040E063E084E10E94D6008BB39C2F907FE6
:1002C0008F70892B8BBB41E063E084E10E94D600F4
:1002D0008FE99FE00197F1F700C0000040E063E084
:1002E00084E10E94D60020E1C29FC00111249BB38B
:1002F0009F70892B8BBB41E063E084E10E94D600B4
:100300008FE99FE00197F1F700C0000040E063E053
:1003100084E10E94D6008FE19EE40197F1F700C0CE
:100320000000CF91089541E061E084E10E94600007
:1003300041E062E084E10E94600041E063E084E12A
:100340000E94600041E064E08AE00E94600041E0B9
:1003500065E08AE00E94600041E066E08AE00E9479
:10036000600041E067E08AE00E9460002FEF81EECC
:1003700094E0215080409040E1F700C0000083E30A
:100380000E944C0182E30E944C0188E20E944C01D1
:100390008CE00E944C0181E00E944C0186E00E94AA
:1003A0004C0182E00E944C010895CF93C82F41E098
:1003B00061E084E10E94D60040E062E084E10E94B6
:1003C000D60040E063E084E10E94D6008BB39C2F0E
:1003D000907F8F70892B8BBB41E063E084E10E94AA
:1003E000D6008FE99FE00197F1F700C0000040E0E0
:1003F00063E084E10E94D60020E1C29FC001112485
:100400009BB39F70892B8BBB41E063E084E10E942A
:10041000D6008FE99FE00197F1F700C0000040E0AF
:1004200063E084E10E94D6008FE19EE40197F1F73A
:1004300000C00000CF910895CF92DF92EF92FF921B
:100440001F93CF93DF93CDB7DEB72A970FB6F894FB
:10045000DEBF0FBECDBF6B017C0199235CF48DE242
:100460000E94D501F094E094D094C094C11CD11C9A
:10047000E11CF11C10E017C0C701B6012AE030E012
:1004800040E050E00E949D02E1E0F0E0EC0FFD1F33
:10049000E10FF11D17FDFA95605D6083C22ED32E2A
:1004A000E42EF52E1F5F1C141D041E041F0414F4FB
:1004B0001A3014F311500CC0E1E0F0E0EC0FFD1F16
:1004C000E10FF11D17FDFA9580810E94D5011150B1
:1004D000112394F72A960FB6F894DEBF0FBECDBF56
:1004E000DF91CF911F91FF90EF90DF90CF90089513
:1004F00081E00E944C010895CF93DF9300D0CDB7E7
:10050000DEB71A8219820E9436000E949301CE0142
:1005100001960E9455000E94780269817A8180E0EC
:1005200090E00E941C022FEF83EC99E02150804064
:100530009040E1F700C00000EACF052E97FB1EF4C3
:1005400000940E94B40257FD07D00E94BC0207FC31
:1005500003D04EF40C94B4025095409530952195FB
:100560003F4F4F4F5F4F08959095809570956195DF
:100570007F4F8F4F9F4F0895A1E21A2EAA1BBB1BDE
:10058000FD010DC0AA1FBB1FEE1FFF1FA217B3075F
:10059000E407F50720F0A21BB30BE40BF50B661F75
:1005A000771F881F991F1A9469F760957095809539
:1005B00090959B01AC01BD01CF010895F894FFCF48
:00000001FF
