:100000000C942A000C9447000C9447000C94470071
:100010000C9447000C9447000C9447000C94470044
:100020000C9447000C9447000C9447000C94470034
:100030000C9447000C9447000C9447000C94470024
:100040000C942D030C9447000C9447000C9447002B
:100050000C94470011241FBECFE5D8E0DEBFCDBF12
:1000600010E0A0E6B0E0E0E5F7E002C005900D92F8
:10007000A837B107D9F720E0A8E7B0E001C01D928A
:10008000AA37B207E1F70E94F1020C94A6030C9480
:10009000000087B18F7387B987B1806487B987B152
:1000A0008F7E87B987B187B987B1807F87B987B1DC
:1000B000816087B986B1887F86B986B1876086B945
:1000C00080B78F7180BF80B7806480BF86B1806247
:1000D00086B98FB780688FBF86B1886086B986B1D0
:1000E000806886B98FE39CE90197F1F700C00000B2
:1000F000089524B135B1FC01318320830895413046
:10010000B9F58431A1F018F48A3031F008958E31B8
:10011000C9F0883211F108952AB381E090E002C05D
:10012000880F991F6A95E2F7822B8ABB089527B33F
:1001300081E090E002C0880F991F6A95E2F7822B58
:1001400087BB089524B381E090E002C0880F991F17
:100150006A95E2F7822B84BB089521B381E090E099
:1001600002C0880F991F6A95E2F7822B81BB089520
:1001700041113AC08431A9F018F48A3031F0089561
:100180008E31D9F0883229F108952AB381E090E0C8
:1001900002C0880F991F6A95E2F7809582238ABB77
:1001A000089527B381E090E002C0880F991F6A95F7
:1001B000E2F78095822387BB089524B381E090E025
:1001C00002C0880F991F6A95E2F78095822384BB4D
:1001D000089521B381E090E002C0880F991F6A95CD
:1001E000E2F78095822381BB08954130B9F58431CF
:1001F000A1F018F48A3031F008958E31C9F08832B8
:1002000011F108952BB381E090E002C0880F991F8F
:100210006A95E2F7822B8BBB089528B381E090E0CA
:1002200002C0880F991F6A95E2F7822B88BB089558
:1002300025B381E090E002C0880F991F6A95E2F72C
:10024000822B85BB089522B381E090E002C0880F25
:10025000991F6A95E2F7822B82BB089541113AC03B
:100260008431A9F018F48A3031F008958E31D9F034
:10027000883229F108952BB381E090E002C0880F05
:10028000991F6A95E2F7809582238BBB089528B366
:1002900081E090E002C0880F991F6A95E2F780958F
:1002A000822388BB089525B381E090E002C0880FC7
:1002B000991F6A95E2F78095822385BB089522B342
:1002C00081E090E002C0880F991F6A95E2F780955F
:1002D000822382BB08958FB780688FBF08950E94E4
:1002E0006B018BB780648BBF85B7836085BF089532
:1002F000CF93C82F40E061E084E10E94F50040E028
:1003000062E084E10E94F50040E063E084E10E9445
:10031000F5008BB39C2F907F8F70892B8BBB41E0B6
:1003200063E084E10E94F5008FE99FE00197F1F717
:1003300000C0000040E063E084E10E94F50020E19D
:10034000C29FC00111249BB39F70892B8BBB41E0DE
:1003500063E084E10E94F5008FE99FE00197F1F7E7
:1003600000C0000040E063E084E10E94F5008FE1FE
:100370009EE40197F1F700C00000CF91089541E09D
:1003800061E084E10E947F0041E062E084E10E943C
:100390007F0041E063E084E10E947F0041E064E08F
:1003A0008AE00E947F0041E065E08AE00E947F00D1
:1003B00041E066E08AE00E947F0041E067E08AE079
:1003C0000E947F002FEF81EE94E02150804090400A
:1003D000E1F700C0000083E30E94780182E30E94FD
:1003E000780188E20E9478018CE00E94780181E027
:1003F0000E94780186E00E94780182E00E947801E4
:100400000895CF93C82F41E061E084E10E94F50098
:1004100040E062E084E10E94F50040E063E084E1B6
:100420000E94F5008BB39C2F907F8F70892B8BBB24
:1004300041E063E084E10E94F5008FE99FE00197CD
:10044000F1F700C0000040E063E084E10E94F500A5
:1004500020E1C29FC00111249BB39F70892B8BBBED
:1004600041E063E084E10E94F5008FE99FE001979D
:10047000F1F700C0000040E063E084E10E94F50075
:100480008FE19EE40197F1F700C00000CF9108953D
:10049000CF92DF92EF92FF921F93CF93DF936B0186
:1004A0007C0199235CF48DE20E940102F094E094B7
:1004B000D094C094C11CD11CE11CF11CC114D10406
:1004C000E104F104F9F480E30E94010253C0BE018B
:1004D000660F771FCC0FDD1FCC0FDD1FCC0FDD1F8C
:1004E000C60FD71FC701B6012AE030E040E050E058
:1004F0000E945603C60FD71FC22ED32EE42EF52E10
:100500001F5F03C010E0C0E0D0E01C141D041E04F7
:100510001F0414F41A30DCF211502AC09E01ADEC15
:10052000BCEC0E9475039695879596958795969550
:1005300087959C01220F331F880F991F880F991FE1
:10054000880F991F820F931F9E01281B390BC90129
:10055000805D0E9401029E01ADECBCEC0E9475031F
:10056000EC01D695C795D695C795D695C7951150E8
:100570001123A4F6DF91CF911F91FF90EF90DF90B0
:10058000CF9008950F931F93CF938C01C0E003C0C9
:100590000E940102CF5FF801EC0FF11D80818111F3
:1005A000F7CFCF911F910F910895CF93DF9300D094
:1005B000CDB7DEB790E8998390EC9A83E1E0F0E064
:1005C000EC0FFD1FE80FF11D8081860F0E9478015E
:1005D0000F900F90DF91CF91089581E00E947801F4
:1005E00008950E9453030E946F010E94BF0163E0BF
:1005F00080E00E94D50280E690E00E94C2022FEFC8
:100600008EE994E2215080409040E1F700C0000064
:1006100060E080E00E94D50289E690E00E94C2027C
:100620002FEF8EE994E2215080409040E1F700C026
:1006300000000E94ED02609178007091790080E0E6
:1006400090E00E9448022FEF8EE994E22150804012
:100650009040E1F700C00000ECCF1F920F920FB660
:100660000F9211242F933F934F935F936F937F9338
:100670008F939F93AF93BF93EF93FF9388E790E09F
:100680000E947900FF91EF91BF91AF919F918F915F
:100690007F916F915F914F913F912F910F900FBE7E
:1006A0000F901F9018950E9449000895052E97FB02
:1006B0001EF400940E946D0357FD07D00E9484032E
:1006C00007FC03D04EF40C946D0350954095309583
:1006D00021953F4F4F4F5F4F0895909580957095AE
:1006E00061957F4F8F4F9F4F0895A29FB001B39F99
:1006F000C001A39F700D811D1124911DB29F700D2B
:10070000811D1124911D0895A1E21A2EAA1BBB1B65
:10071000FD010DC0AA1FBB1FEE1FFF1FA217B307CD
:10072000E407F50720F0A21BB30BE40BF50B661FE3
:10073000771F881F991F1A9469F7609570958095A7
:1007400090959B01AC01BD01CF010895F894FFCFB6
:1007500057454C434F4D45210050726573732042FD
:080760007574746F6E20320005
:00000001FF
